{
  "_format": "hh-sol-artifact-1",
  "contractName": "Hello",
  "sourceName": "contracts/Hello.sol",
  "abi": [
    {
      "inputs": [
        {
          "internalType": "string",
          "name": "_name",
          "type": "string"
        }
      ],
      "stateMutability": "nonpayable",
      "type": "constructor"
    },
    {
      "inputs": [],
      "name": "justSayHello",
      "outputs": [
        {
          "internalType": "string",
          "name": "",
          "type": "string"
        }
      ],
      "stateMutability": "pure",
      "type": "function"
    },
    {
      "inputs": [],
      "name": "sayHello",
      "outputs": [
        {
          "internalType": "string",
          "name": "",
          "type": "string"
        }
      ],
      "stateMutability": "view",
      "type": "function"
    }
  ],
  "bytecode": "0x608060405234801561001057600080fd5b5060405161044d38038061044d83398101604081905261002f91610058565b600061003b82826101aa565b5050610269565b634e487b7160e01b600052604160045260246000fd5b6000602080838503121561006b57600080fd5b82516001600160401b038082111561008257600080fd5b818501915085601f83011261009657600080fd5b8151818111156100a8576100a8610042565b604051601f8201601f19908116603f011681019083821181831017156100d0576100d0610042565b8160405282815288868487010111156100e857600080fd5b600093505b8284101561010a57848401860151818501870152928501926100ed565b600086848301015280965050505050505092915050565b600181811c9082168061013557607f821691505b60208210810361015557634e487b7160e01b600052602260045260246000fd5b50919050565b601f8211156101a557600081815260208120601f850160051c810160208610156101825750805b601f850160051c820191505b818110156101a15782815560010161018e565b5050505b505050565b81516001600160401b038111156101c3576101c3610042565b6101d7816101d18454610121565b8461015b565b602080601f83116001811461020c57600084156101f45750858301515b600019600386901b1c1916600185901b1785556101a1565b600085815260208120601f198616915b8281101561023b5788860151825594840194600190910190840161021c565b50858210156102595787850151600019600388901b60f8161c191681555b5050505050600190811b01905550565b6101d5806102786000396000f3fe608060405234801561001057600080fd5b50600436106100365760003560e01c8063abb9b8021461003b578063ef5fb05b1461006e575b600080fd5b60408051808201909152600581526448656c6c6f60d81b60208201525b6040516100659190610099565b60405180910390f35b6100586060600060405160200161008591906100e7565b604051602081830303815290604052905090565b600060208083528351808285015260005b818110156100c6578581018301518582016040015282016100aa565b506000604082860101526040601f19601f8301168501019250505092915050565b6602432b6363796160cd1b8152600060076000845481600182811c91508083168061011357607f831692505b6020808410820361013257634e487b7160e01b86526022600452602486fd5b818015610146576001811461015f57610190565b60ff1986168a89015284151585028a0188019650610190565b60008b81526020902060005b868110156101865781548c82018b015290850190830161016b565b505087858b010196505b5094999850505050505050505056fea264697066735822122025e0b5a19ff73074f6d5ed67bbbd577d82d1b29f36ef8ccf1e17e23234bbbda964736f6c63430008140033",
  "linkReferences": {},
  "deployedLinkReferences": {}
}