{
  "_format": "hh-sol-artifact-1",
  "contractName": "LeaseV1",
  "sourceName": "contracts/testingBeacon.sol",
  "abi": [
    {
      "inputs": [],
      "name": "InvalidInitialization",
      "type": "error"
    },
    {
      "inputs": [],
      "name": "NotInitializing",
      "type": "error"
    },
    {
      "anonymous": false,
      "inputs": [
        {
          "indexed": false,
          "internalType": "uint64",
          "name": "version",
          "type": "uint64"
        }
      ],
      "name": "Initialized",
      "type": "event"
    },
    {
      "inputs": [],
      "name": "decrement",
      "outputs": [],
      "stateMutability": "nonpayable",
      "type": "function"
    },
    {
      "inputs": [
        {
          "internalType": "uint256",
          "name": "_value",
          "type": "uint256"
        }
      ],
      "name": "initialize",
      "outputs": [],
      "stateMutability": "nonpayable",
      "type": "function"
    },
    {
      "inputs": [],
      "name": "value",
      "outputs": [
        {
          "internalType": "uint256",
          "name": "",
          "type": "uint256"
        }
      ],
      "stateMutability": "view",
      "type": "function"
    }
  ],
  "bytecode": "0x608060405234801561001057600080fd5b50610214806100206000396000f3fe608060405234801561001057600080fd5b50600436106100415760003560e01c80632baeceb7146100465780633fa4f24514610050578063fe4b84df1461006b575b600080fd5b61004e61007e565b005b61005960005481565b60405190815260200160405180910390f35b61004e6100793660046101a0565b610094565b60008054908061008d836101b9565b9190505550565b7ff0c57e16840df040f15088dc2f81fe391c3923bec73e23a9662efc9c229c6a008054600160401b810460ff16159067ffffffffffffffff166000811580156100da5750825b905060008267ffffffffffffffff1660011480156100f75750303b155b905081158015610105575080155b156101235760405163f92ee8a960e01b815260040160405180910390fd5b845467ffffffffffffffff19166001178555831561014d57845460ff60401b1916600160401b1785555b6000869055831561019857845460ff60401b19168555604051600181527fc7f505b2f371ae2175ee4913f4499e1f2633a7b5936321eed1cdaeb6115181d29060200160405180910390a15b505050505050565b6000602082840312156101b257600080fd5b5035919050565b6000816101d657634e487b7160e01b600052601160045260246000fd5b50600019019056fea264697066735822122021600d25459157544d79777a5649a3042b150a58fc1c3254645c67d0c009e45964736f6c63430008140033",
  "linkReferences": {},
  "deployedLinkReferences": {}
}