{
  "_format": "hh-sol-artifact-1",
  "contractName": "LeaseContract",
  "sourceName": "contracts/leaseContract.sol",
  "abi": [
    {
      "inputs": [],
      "name": "InvalidInitialization",
      "type": "error"
    },
    {
      "inputs": [],
      "name": "NotInitializing",
      "type": "error"
    },
    {
      "anonymous": false,
      "inputs": [
        {
          "components": [
            {
              "internalType": "address",
              "name": "id",
              "type": "address"
            },
            {
              "internalType": "uint256",
              "name": "startDate",
              "type": "uint256"
            },
            {
              "internalType": "uint256",
              "name": "endDate",
              "type": "uint256"
            },
            {
              "internalType": "uint256",
              "name": "monthlyRent",
              "type": "uint256"
            },
            {
              "internalType": "uint256",
              "name": "rentDue",
              "type": "uint256"
            },
            {
              "internalType": "uint256",
              "name": "lastRentPaidDate",
              "type": "uint256"
            },
            {
              "internalType": "uint256",
              "name": "advanceAmountPaid",
              "type": "uint256"
            },
            {
              "internalType": "uint256",
              "name": "securityDepositPaid",
              "type": "uint256"
            },
            {
              "internalType": "bool",
              "name": "renewLease",
              "type": "bool"
            },
            {
              "internalType": "bool",
              "name": "renewLeaseOwner",
              "type": "bool"
            }
          ],
          "indexed": false,
          "internalType": "struct LeaseContract.Tenant",
          "name": "tenant",
          "type": "tuple"
        },
        {
          "indexed": false,
          "internalType": "address",
          "name": "owner",
          "type": "address"
        }
      ],
      "name": "DisputeHandled",
      "type": "event"
    },
    {
      "anonymous": false,
      "inputs": [
        {
          "indexed": false,
          "internalType": "uint64",
          "name": "version",
          "type": "uint64"
        }
      ],
      "name": "Initialized",
      "type": "event"
    },
    {
      "anonymous": false,
      "inputs": [
        {
          "components": [
            {
              "internalType": "address",
              "name": "id",
              "type": "address"
            },
            {
              "internalType": "uint256",
              "name": "startDate",
              "type": "uint256"
            },
            {
              "internalType": "uint256",
              "name": "endDate",
              "type": "uint256"
            },
            {
              "internalType": "uint256",
              "name": "monthlyRent",
              "type": "uint256"
            },
            {
              "internalType": "uint256",
              "name": "rentDue",
              "type": "uint256"
            },
            {
              "internalType": "uint256",
              "name": "lastRentPaidDate",
              "type": "uint256"
            },
            {
              "internalType": "uint256",
              "name": "advanceAmountPaid",
              "type": "uint256"
            },
            {
              "internalType": "uint256",
              "name": "securityDepositPaid",
              "type": "uint256"
            },
            {
              "internalType": "bool",
              "name": "renewLease",
              "type": "bool"
            },
            {
              "internalType": "bool",
              "name": "renewLeaseOwner",
              "type": "bool"
            }
          ],
          "indexed": false,
          "internalType": "struct LeaseContract.Tenant",
          "name": "tenant",
          "type": "tuple"
        },
        {
          "indexed": false,
          "internalType": "uint256",
          "name": "rent",
          "type": "uint256"
        },
        {
          "indexed": false,
          "internalType": "uint256",
          "name": "newLastDate",
          "type": "uint256"
        }
      ],
      "name": "LeaseRenewed",
      "type": "event"
    },
    {
      "anonymous": false,
      "inputs": [
        {
          "components": [
            {
              "internalType": "address",
              "name": "id",
              "type": "address"
            },
            {
              "internalType": "uint256",
              "name": "startDate",
              "type": "uint256"
            },
            {
              "internalType": "uint256",
              "name": "endDate",
              "type": "uint256"
            },
            {
              "internalType": "uint256",
              "name": "monthlyRent",
              "type": "uint256"
            },
            {
              "internalType": "uint256",
              "name": "rentDue",
              "type": "uint256"
            },
            {
              "internalType": "uint256",
              "name": "lastRentPaidDate",
              "type": "uint256"
            },
            {
              "internalType": "uint256",
              "name": "advanceAmountPaid",
              "type": "uint256"
            },
            {
              "internalType": "uint256",
              "name": "securityDepositPaid",
              "type": "uint256"
            },
            {
              "internalType": "bool",
              "name": "renewLease",
              "type": "bool"
            },
            {
              "internalType": "bool",
              "name": "renewLeaseOwner",
              "type": "bool"
            }
          ],
          "indexed": false,
          "internalType": "struct LeaseContract.Tenant",
          "name": "tenant",
          "type": "tuple"
        },
        {
          "indexed": false,
          "internalType": "address",
          "name": "owner",
          "type": "address"
        },
        {
          "indexed": false,
          "internalType": "uint256",
          "name": "endDate",
          "type": "uint256"
        },
        {
          "indexed": false,
          "internalType": "uint256",
          "name": "securityDepositReturned",
          "type": "uint256"
        }
      ],
      "name": "LeaseTerminated",
      "type": "event"
    },
    {
      "anonymous": false,
      "inputs": [
        {
          "indexed": false,
          "internalType": "string",
          "name": "message",
          "type": "string"
        }
      ],
      "name": "Message",
      "type": "event"
    },
    {
      "anonymous": false,
      "inputs": [
        {
          "indexed": false,
          "internalType": "address",
          "name": "newOwner",
          "type": "address"
        }
      ],
      "name": "OwnershipTransferred",
      "type": "event"
    },
    {
      "anonymous": false,
      "inputs": [
        {
          "components": [
            {
              "internalType": "address",
              "name": "id",
              "type": "address"
            },
            {
              "internalType": "uint256",
              "name": "startDate",
              "type": "uint256"
            },
            {
              "internalType": "uint256",
              "name": "endDate",
              "type": "uint256"
            },
            {
              "internalType": "uint256",
              "name": "monthlyRent",
              "type": "uint256"
            },
            {
              "internalType": "uint256",
              "name": "rentDue",
              "type": "uint256"
            },
            {
              "internalType": "uint256",
              "name": "lastRentPaidDate",
              "type": "uint256"
            },
            {
              "internalType": "uint256",
              "name": "advanceAmountPaid",
              "type": "uint256"
            },
            {
              "internalType": "uint256",
              "name": "securityDepositPaid",
              "type": "uint256"
            },
            {
              "internalType": "bool",
              "name": "renewLease",
              "type": "bool"
            },
            {
              "internalType": "bool",
              "name": "renewLeaseOwner",
              "type": "bool"
            }
          ],
          "indexed": false,
          "internalType": "struct LeaseContract.Tenant",
          "name": "tenant",
          "type": "tuple"
        },
        {
          "indexed": false,
          "internalType": "uint256",
          "name": "rent",
          "type": "uint256"
        },
        {
          "indexed": false,
          "internalType": "uint256",
          "name": "lastRentPaidDate",
          "type": "uint256"
        }
      ],
      "name": "RentPaid",
      "type": "event"
    },
    {
      "anonymous": false,
      "inputs": [
        {
          "indexed": false,
          "internalType": "enum LeaseContract.StateLeaseContract",
          "name": "state",
          "type": "uint8"
        }
      ],
      "name": "StatusChanged",
      "type": "event"
    },
    {
      "inputs": [],
      "name": "RentRenewLease",
      "outputs": [],
      "stateMutability": "payable",
      "type": "function"
    },
    {
      "inputs": [],
      "name": "getCurrentTenant",
      "outputs": [
        {
          "components": [
            {
              "internalType": "address",
              "name": "id",
              "type": "address"
            },
            {
              "internalType": "uint256",
              "name": "startDate",
              "type": "uint256"
            },
            {
              "internalType": "uint256",
              "name": "endDate",
              "type": "uint256"
            },
            {
              "internalType": "uint256",
              "name": "monthlyRent",
              "type": "uint256"
            },
            {
              "internalType": "uint256",
              "name": "rentDue",
              "type": "uint256"
            },
            {
              "internalType": "uint256",
              "name": "lastRentPaidDate",
              "type": "uint256"
            },
            {
              "internalType": "uint256",
              "name": "advanceAmountPaid",
              "type": "uint256"
            },
            {
              "internalType": "uint256",
              "name": "securityDepositPaid",
              "type": "uint256"
            },
            {
              "internalType": "bool",
              "name": "renewLease",
              "type": "bool"
            },
            {
              "internalType": "bool",
              "name": "renewLeaseOwner",
              "type": "bool"
            }
          ],
          "internalType": "struct LeaseContract.Tenant",
          "name": "",
          "type": "tuple"
        }
      ],
      "stateMutability": "view",
      "type": "function"
    },
    {
      "inputs": [],
      "name": "getOwner",
      "outputs": [
        {
          "internalType": "address",
          "name": "",
          "type": "address"
        }
      ],
      "stateMutability": "view",
      "type": "function"
    },
    {
      "inputs": [
        {
          "internalType": "address",
          "name": "_id",
          "type": "address"
        }
      ],
      "name": "getTenant",
      "outputs": [
        {
          "components": [
            {
              "internalType": "address",
              "name": "id",
              "type": "address"
            },
            {
              "internalType": "uint256",
              "name": "startDate",
              "type": "uint256"
            },
            {
              "internalType": "uint256",
              "name": "endDate",
              "type": "uint256"
            },
            {
              "internalType": "uint256",
              "name": "monthlyRent",
              "type": "uint256"
            },
            {
              "internalType": "uint256",
              "name": "rentDue",
              "type": "uint256"
            },
            {
              "internalType": "uint256",
              "name": "lastRentPaidDate",
              "type": "uint256"
            },
            {
              "internalType": "uint256",
              "name": "advanceAmountPaid",
              "type": "uint256"
            },
            {
              "internalType": "uint256",
              "name": "securityDepositPaid",
              "type": "uint256"
            },
            {
              "internalType": "bool",
              "name": "renewLease",
              "type": "bool"
            },
            {
              "internalType": "bool",
              "name": "renewLeaseOwner",
              "type": "bool"
            }
          ],
          "internalType": "struct LeaseContract.Tenant",
          "name": "",
          "type": "tuple"
        }
      ],
      "stateMutability": "view",
      "type": "function"
    },
    {
      "inputs": [],
      "name": "incrementRate",
      "outputs": [
        {
          "internalType": "uint256",
          "name": "",
          "type": "uint256"
        }
      ],
      "stateMutability": "view",
      "type": "function"
    },
    {
      "inputs": [
        {
          "internalType": "address",
          "name": "_owner",
          "type": "address"
        },
        {
          "internalType": "uint256",
          "name": "_incrementRate",
          "type": "uint256"
        },
        {
          "internalType": "uint256",
          "name": "_monthlyRent",
          "type": "uint256"
        }
      ],
      "name": "initialize",
      "outputs": [],
      "stateMutability": "nonpayable",
      "type": "function"
    },
    {
      "inputs": [],
      "name": "monthlyRent",
      "outputs": [
        {
          "internalType": "uint256",
          "name": "",
          "type": "uint256"
        }
      ],
      "stateMutability": "view",
      "type": "function"
    },
    {
      "inputs": [],
      "name": "payRent",
      "outputs": [],
      "stateMutability": "payable",
      "type": "function"
    },
    {
      "inputs": [],
      "name": "rent",
      "outputs": [],
      "stateMutability": "payable",
      "type": "function"
    },
    {
      "inputs": [],
      "name": "setAvailable",
      "outputs": [],
      "stateMutability": "nonpayable",
      "type": "function"
    },
    {
      "inputs": [],
      "name": "setInactive",
      "outputs": [],
      "stateMutability": "nonpayable",
      "type": "function"
    },
    {
      "inputs": [
        {
          "internalType": "bool",
          "name": "_decision",
          "type": "bool"
        }
      ],
      "name": "setRenewLeaseOwner",
      "outputs": [],
      "stateMutability": "nonpayable",
      "type": "function"
    },
    {
      "inputs": [
        {
          "internalType": "bool",
          "name": "_decision",
          "type": "bool"
        }
      ],
      "name": "setRenewLeaseTenant",
      "outputs": [],
      "stateMutability": "view",
      "type": "function"
    },
    {
      "inputs": [],
      "name": "setRented",
      "outputs": [],
      "stateMutability": "nonpayable",
      "type": "function"
    },
    {
      "inputs": [],
      "name": "terminateLease",
      "outputs": [],
      "stateMutability": "nonpayable",
      "type": "function"
    },
    {
      "inputs": [
        {
          "internalType": "address",
          "name": "newOwner",
          "type": "address"
        }
      ],
      "name": "transferOwnership",
      "outputs": [],
      "stateMutability": "nonpayable",
      "type": "function"
    }
  ],
  "bytecode": "0x608060405234801561001057600080fd5b506114b5806100206000396000f3fe6080604052600436106100f35760003560e01c806382996d9f1161008a578063e5cdb48811610059578063e5cdb48814610225578063f1b9ee2414610245578063f2fde38b1461025a578063f830cd5a1461027a57600080fd5b806382996d9f146101d7578063893d20e8146101df578063a709c4fe14610207578063e4cbecdf1461020f57600080fd5b80634311b54e116100c65780634311b54e146101625780636fc20e69146101825780637a1ac61e146101a25780637a7d1566146101c257600080fd5b80630163a7bf146100f8578063088cbf7e146101025780631168c9a81461012b5780633e6ca6aa14610140575b600080fd5b61010061028f565b005b34801561010e57600080fd5b50610118600d5481565b6040519081526020015b60405180910390f35b34801561013757600080fd5b50610100610462565b34801561014c57600080fd5b506101556108a9565b604051610122919061123b565b34801561016e57600080fd5b5061010061017d3660046112ba565b610928565b34801561018e57600080fd5b5061010061019d3660046112ba565b610955565b3480156101ae57600080fd5b506101006101bd3660046112ff565b610999565b3480156101ce57600080fd5b50610100610ad1565b610100610b12565b3480156101eb57600080fd5b506000546040516001600160a01b039091168152602001610122565b610100610e8b565b34801561021b57600080fd5b50610118600c5481565b34801561023157600080fd5b50610155610240366004611332565b610ffa565b34801561025157600080fd5b5061010061109e565b34801561026657600080fd5b50610100610275366004611332565b6110dc565b34801561028657600080fd5b50610100611128565b6001546001600160a01b031633146102c25760405162461bcd60e51b81526004016102b99061134d565b60405180910390fd5b60095460ff1615156001146102d657600080fd5b600554156103145760405162461bcd60e51b815260206004820152600b60248201526a52656e742069732064756560a81b60448201526064016102b9565b60095460ff61010090910416151560011461032e57600080fd5b60035442116103715760405162461bcd60e51b815260206004820152600f60248201526e1b19585cd9481b9bdd08195b991959608a1b60448201526064016102b9565b61037f426301e133806113ad565b600355600d54600c54606491610394916113c6565b61039e91906113dd565b600c546103ab91906113ad565b600c8190556103bb9060036113c6565b3410156103fd5760405162461bcd60e51b815260206004820152601060248201526f6e6f7420656e6f756768206d6f6e657960801b60448201526064016102b9565b600c5461040b9060036113c6565b341115610460576000600c54600361042391906113c6565b61042d90346113ff565b604051909150339082156108fc029083906000818181858888f1935050505015801561045d573d6000803e3d6000fd5b50505b565b6000546001600160a01b031633148061048557506001546001600160a01b031633145b6104ed5760405162461bcd60e51b815260206004820152603360248201527f4f6e6c79206f776e6572206f722063757272656e742074656e616e742063616e6044820152721031b0b636103a3434b990333ab731ba34b7b760691b60648201526084016102b9565b600042600160020154111561050457506001610508565b5060005b801515600103610758576000546001600160a01b031633036105f6576001546008546040516001600160a01b039092169181156108fc0291906000818181858888f19350505050158015610560573d6000803e3d6000fd5b50600060058190556001546007546040516001600160a01b039092169281156108fc029290818181858888f193505050501580156105a2573d6000803e3d6000fd5b506000805160206114608339815191526040516105e9906020808252601690820152754f776e6572207465726d696e61746564206c6561736560501b604082015260600190565b60405180910390a1610895565b600080546008546040516001600160a01b039092169281156108fc029290818181858888f19350505050158015610631573d6000803e3d6000fd5b5060008051602061146083398151915260405161067f9060208082526019908201527f7365637572697479206465706f73697420746f206f776e657200000000000000604082015260600190565b60405180910390a1600080546007546040516001600160a01b039092169281156108fc029290818181858888f193505050501580156106c2573d6000803e3d6000fd5b506000805160206114608339815191526040516107039060208082526010908201526f30b23b30b731b2903a379037bbb732b960811b604082015260600190565b60405180910390a16000805160206114608339815191526040516105e99060208082526017908201527f54656e616e74207465726d696e61746564206c65617365000000000000000000604082015260600190565b6000610762611152565b905060008160016007015461077791906113ff565b90506000805160206114608339815191526040516107c6906020808252601a908201527f7365637572697479206465706f73697420746f2074656e616e74000000000000604082015260600190565b60405180910390a16001546040516001600160a01b039091169082156108fc029083906000818181858888f19350505050158015610808573d6000803e3d6000fd5b506000805160206114608339815191526040516108499060208082526010908201526f30b23b30b731b2903a379037bbb732b960811b604082015260600190565b60405180910390a16000600581905580546007546040516001600160a01b039092169281156108fc029290818181858888f19350505050158015610891573d6000803e3d6000fd5b5050505b5042600355600b805460ff19166002179055565b6108b16111db565b5060408051610140810182526001546001600160a01b031681526002546020820152600354918101919091526004546060820152600554608082015260065460a082015260075460c082015260085460e082015260095460ff80821615156101008085019190915290910416151561012082015290565b6001546001600160a01b031633146109525760405162461bcd60e51b81526004016102b99061134d565b50565b6000546001600160a01b0316331461097f5760405162461bcd60e51b81526004016102b990611428565b600980549115156101000261ff0019909216919091179055565b7ff0c57e16840df040f15088dc2f81fe391c3923bec73e23a9662efc9c229c6a008054600160401b810460ff16159067ffffffffffffffff166000811580156109df5750825b905060008267ffffffffffffffff1660011480156109fc5750303b155b905081158015610a0a575080155b15610a285760405163f92ee8a960e01b815260040160405180910390fd5b845467ffffffffffffffff191660011785558315610a5257845460ff60401b1916600160401b1785555b600080546001600160a01b0319166001600160a01b038a16179055600d879055600b805460ff19169055600c8690558315610ac757845460ff60401b19168555604051600181527fc7f505b2f371ae2175ee4913f4499e1f2633a7b5936321eed1cdaeb6115181d29060200160405180910390a15b5050505050505050565b6000546001600160a01b03163314610afb5760405162461bcd60e51b81526004016102b990611428565b600b80546000919060ff19166001835b0217905550565b6000600b5460ff166002811115610b2b57610b2b611412565b14610b785760405162461bcd60e51b815260206004820152601860248201527f4c65617365206973206e6f7420757020666f722072656e74000000000000000060448201526064016102b9565b600c54610b869060036113c6565b341015610bc85760405162461bcd60e51b815260206004820152601060248201526f4e6f7420656e6f756768206d6f6e657960801b60448201526064016102b9565b600c54610bd69060036113c6565b341115610c2b576000600c546003610bee91906113c6565b610bf890346113ff565b604051909150339082156108fc029083906000818181858888f19350505050158015610c28573d6000803e3d6000fd5b50505b604051806101400160405280336001600160a01b03168152602001428152602001426301e13380610c5c91906113ad565b8152602001600c54815260200160008152602001428152602001600c548152602001600c546002610c8d91906113c6565b815260200160001515815260200160001515815250600a6000336001600160a01b03166001600160a01b0316815260200190815260200160002060008201518160000160006101000a8154816001600160a01b0302191690836001600160a01b031602179055506020820151816001015560408201518160020155606082015181600301556080820151816004015560a0820151816005015560c0820151816006015560e082015181600701556101008201518160080160006101000a81548160ff0219169083151502179055506101208201518160080160016101000a81548160ff021916908315150217905550905050600a6000336001600160a01b03166001600160a01b0316815260200190815260200160002060016000820160009054906101000a90046001600160a01b03168160000160006101000a8154816001600160a01b0302191690836001600160a01b03160217905550600182015481600101556002820154816002015560038201548160030155600482015481600401556005820154816005015560068201548160060155600782015481600701556008820160009054906101000a900460ff168160080160006101000a81548160ff0219169083151502179055506008820160019054906101000a900460ff168160080160016101000a81548160ff021916908315150217905550905050565b6001546001600160a01b03163314610eb55760405162461bcd60e51b81526004016102b99061134d565b600454610ec39060026113c6565b60075414610f135760405162461bcd60e51b815260206004820152601760248201527f416476616e636520616d6f756e74206e6f74207061696400000000000000000060448201526064016102b9565b60055415610f515760405162461bcd60e51b815260206004820152600b60248201526a52656e742069732064756560a81b60448201526064016102b9565b600c54341015610f9a5760405162461bcd60e51b81526020600482015260146024820152731c995b9d08185b5bdd5b9d081b9bdd081c185a5960621b60448201526064016102b9565b600c54341115610fe7576000600c5434610fb491906113ff565b604051909150339082156108fc029083906000818181858888f19350505050158015610fe4573d6000803e3d6000fd5b50505b600b80546001919060ff19168280610b0b565b6110026111db565b506001600160a01b039081166000908152600a6020908152604091829020825161014081018452815490941684526001810154918401919091526002810154918301919091526003810154606083015260048101546080830152600581015460a0830152600681015460c0830152600781015460e08301526008015460ff80821615156101008085019190915290910416151561012082015290565b6000546001600160a01b031633146110c85760405162461bcd60e51b81526004016102b990611428565b600b80546002919060ff1916600183610b0b565b6000546001600160a01b031633146111065760405162461bcd60e51b81526004016102b990611428565b600080546001600160a01b0319166001600160a01b0392909216919091179055565b6000546001600160a01b03163314610fe75760405162461bcd60e51b81526004016102b990611428565b6000804260016005015461116691906113ff565b905062278d00808211156111d2576000601e603c8060186064600c54878961118e91906113ff565b61119891906113c6565b6111a291906113dd565b6111ac91906113dd565b6111b691906113dd565b6111c091906113dd565b6111ca91906113dd565b949350505050565b60009250505090565b60405180610140016040528060006001600160a01b03168152602001600081526020016000815260200160008152602001600081526020016000815260200160008152602001600081526020016000151581526020016000151581525090565b81516001600160a01b0316815261014081016020830151602083015260408301516040830152606083015160608301526080830151608083015260a083015160a083015260c083015160c083015260e083015160e0830152610100808401516112a78285018215159052565b5050610120928301511515919092015290565b6000602082840312156112cc57600080fd5b813580151581146112dc57600080fd5b9392505050565b80356001600160a01b03811681146112fa57600080fd5b919050565b60008060006060848603121561131457600080fd5b61131d846112e3565b95602085013595506040909401359392505050565b60006020828403121561134457600080fd5b6112dc826112e3565b6020808252602a908201527f4f6e6c792063757272656e742074656e616e742063616e2063616c6c207468696040820152693990333ab731ba34b7b760b11b606082015260800190565b634e487b7160e01b600052601160045260246000fd5b808201808211156113c0576113c0611397565b92915050565b80820281158282048414176113c0576113c0611397565b6000826113fa57634e487b7160e01b600052601260045260246000fd5b500490565b818103818111156113c0576113c0611397565b634e487b7160e01b600052602160045260246000fd5b60208082526018908201527f4f6e6c792074656e616e742063616e207061792072656e74000000000000000060408201526060019056fe51a7f65c6325882f237d4aeb43228179cfad48b868511d508e24b4437a819137a264697066735822122048f5399b5a03f73060e3f90b700b3f3e1ea4478cad25a8f7cc50a009730f3e4c64736f6c63430008140033",
  "linkReferences": {},
  "deployedLinkReferences": {}
}