{
  "_format": "hh-sol-artifact-1",
  "contractName": "LeaseV2",
  "sourceName": "contracts/testingBeacon.sol",
  "abi": [
    {
      "inputs": [],
      "name": "InvalidInitialization",
      "type": "error"
    },
    {
      "inputs": [],
      "name": "NotInitializing",
      "type": "error"
    },
    {
      "anonymous": false,
      "inputs": [
        {
          "indexed": false,
          "internalType": "uint64",
          "name": "version",
          "type": "uint64"
        }
      ],
      "name": "Initialized",
      "type": "event"
    },
    {
      "inputs": [],
      "name": "decrement",
      "outputs": [],
      "stateMutability": "nonpayable",
      "type": "function"
    },
    {
      "inputs": [],
      "name": "increment",
      "outputs": [],
      "stateMutability": "nonpayable",
      "type": "function"
    },
    {
      "inputs": [
        {
          "internalType": "uint256",
          "name": "_value",
          "type": "uint256"
        }
      ],
      "name": "initialize",
      "outputs": [],
      "stateMutability": "nonpayable",
      "type": "function"
    },
    {
      "inputs": [],
      "name": "value",
      "outputs": [
        {
          "internalType": "uint256",
          "name": "",
          "type": "uint256"
        }
      ],
      "stateMutability": "view",
      "type": "function"
    }
  ],
  "bytecode": "0x608060405234801561001057600080fd5b50610257806100206000396000f3fe608060405234801561001057600080fd5b506004361061004c5760003560e01c80632baeceb7146100515780633fa4f2451461005b578063d09de08a14610076578063fe4b84df1461007e575b600080fd5b610059610091565b005b61006460005481565b60405190815260200160405180910390f35b6100596100a7565b61005961008c3660046101c2565b6100b6565b6000805490806100a0836101f1565b9190505550565b6000805490806100a083610208565b7ff0c57e16840df040f15088dc2f81fe391c3923bec73e23a9662efc9c229c6a008054600160401b810460ff16159067ffffffffffffffff166000811580156100fc5750825b905060008267ffffffffffffffff1660011480156101195750303b155b905081158015610127575080155b156101455760405163f92ee8a960e01b815260040160405180910390fd5b845467ffffffffffffffff19166001178555831561016f57845460ff60401b1916600160401b1785555b600086905583156101ba57845460ff60401b19168555604051600181527fc7f505b2f371ae2175ee4913f4499e1f2633a7b5936321eed1cdaeb6115181d29060200160405180910390a15b505050505050565b6000602082840312156101d457600080fd5b5035919050565b634e487b7160e01b600052601160045260246000fd5b600081610200576102006101db565b506000190190565b60006001820161021a5761021a6101db565b506001019056fea264697066735822122085bdeb4f94cd906ae3332dcc82e630148b51b5872e21b76258ca2e81cb899c7064736f6c63430008140033",
  "linkReferences": {},
  "deployedLinkReferences": {}
}